{
    "contractName": "ROSCAFactory",
    "abi": [
        {
            "inputs": [
                {
                    "internalType": "address",
                    "name": "_implementation",
                    "type": "address"
                }
            ],
            "stateMutability": "nonpayable",
            "type": "constructor"
        },
        {
            "inputs": [],
            "name": "FailedDeployment",
            "type": "error"
        },
        {
            "inputs": [
                {
                    "internalType": "uint256",
                    "name": "balance",
                    "type": "uint256"
                },
                {
                    "internalType": "uint256",
                    "name": "needed",
                    "type": "uint256"
                }
            ],
            "name": "InsufficientBalance",
            "type": "error"
        },
        {
            "inputs": [
                {
                    "internalType": "address",
                    "name": "owner",
                    "type": "address"
                }
            ],
            "name": "OwnableInvalidOwner",
            "type": "error"
        },
        {
            "inputs": [
                {
                    "internalType": "address",
                    "name": "account",
                    "type": "address"
                }
            ],
            "name": "OwnableUnauthorizedAccount",
            "type": "error"
        },
        {
            "anonymous": false,
            "inputs": [
                {
                    "indexed": true,
                    "internalType": "address",
                    "name": "group",
                    "type": "address"
                },
                {
                    "indexed": true,
                    "internalType": "address",
                    "name": "creator",
                    "type": "address"
                }
            ],
            "name": "GroupCreated",
            "type": "event"
        },
        {
            "anonymous": false,
            "inputs": [
                {
                    "indexed": true,
                    "internalType": "address",
                    "name": "previousOwner",
                    "type": "address"
                },
                {
                    "indexed": true,
                    "internalType": "address",
                    "name": "newOwner",
                    "type": "address"
                }
            ],
            "name": "OwnershipTransferred",
            "type": "event"
        },
        {
            "inputs": [
                {
                    "internalType": "uint256",
                    "name": "",
                    "type": "uint256"
                }
            ],
            "name": "allGroups",
            "outputs": [
                {
                    "internalType": "address",
                    "name": "",
                    "type": "address"
                }
            ],
            "stateMutability": "view",
            "type": "function",
            "constant": true
        },
        {
            "inputs": [
                {
                    "internalType": "address",
                    "name": "",
                    "type": "address"
                },
                {
                    "internalType": "uint256",
                    "name": "",
                    "type": "uint256"
                }
            ],
            "name": "groupsByCreator",
            "outputs": [
                {
                    "internalType": "address",
                    "name": "",
                    "type": "address"
                }
            ],
            "stateMutability": "view",
            "type": "function",
            "constant": true
        },
        {
            "inputs": [],
            "name": "implementation",
            "outputs": [
                {
                    "internalType": "address",
                    "name": "",
                    "type": "address"
                }
            ],
            "stateMutability": "view",
            "type": "function",
            "constant": true
        },
        {
            "inputs": [],
            "name": "owner",
            "outputs": [
                {
                    "internalType": "address",
                    "name": "",
                    "type": "address"
                }
            ],
            "stateMutability": "view",
            "type": "function",
            "constant": true
        },
        {
            "inputs": [],
            "name": "renounceOwnership",
            "outputs": [],
            "stateMutability": "nonpayable",
            "type": "function"
        },
        {
            "inputs": [
                {
                    "internalType": "address",
                    "name": "newOwner",
                    "type": "address"
                }
            ],
            "name": "transferOwnership",
            "outputs": [],
            "stateMutability": "nonpayable",
            "type": "function"
        },
        {
            "inputs": [
                {
                    "internalType": "uint256",
                    "name": "_amount",
                    "type": "uint256"
                },
                {
                    "internalType": "uint256",
                    "name": "_interval",
                    "type": "uint256"
                },
                {
                    "internalType": "uint256",
                    "name": "_maxMembers",
                    "type": "uint256"
                },
                {
                    "internalType": "bool",
                    "name": "_useCollateral",
                    "type": "bool"
                }
            ],
            "name": "createGroup",
            "outputs": [
                {
                    "internalType": "address",
                    "name": "group",
                    "type": "address"
                }
            ],
            "stateMutability": "nonpayable",
            "type": "function"
        },
        {
            "inputs": [],
            "name": "allGroupsLength",
            "outputs": [
                {
                    "internalType": "uint256",
                    "name": "",
                    "type": "uint256"
                }
            ],
            "stateMutability": "view",
            "type": "function",
            "constant": true
        },
        {
            "inputs": [
                {
                    "internalType": "address",
                    "name": "creator",
                    "type": "address"
                }
            ],
            "name": "groupsOf",
            "outputs": [
                {
                    "internalType": "address[]",
                    "name": "",
                    "type": "address[]"
                }
            ],
            "stateMutability": "view",
            "type": "function",
            "constant": true
        },
        {
            "inputs": [],
            "name": "getAllGroups",
            "outputs": [
                {
                    "internalType": "address[]",
                    "name": "",
                    "type": "address[]"
                }
            ],
            "stateMutability": "view",
            "type": "function",
            "constant": true
        }
    ],
    "bytecode": "0x60a060405234801561000f575f80fd5b506040516107f63803806107f683398101604081905261002e916100ff565b338061005457604051631e4fbdf760e01b81525f60048201526024015b60405180910390fd5b61005d816100b0565b506001600160a01b03811661009f5760405162461bcd60e51b81526020600482015260086024820152670696d706c203d20360c41b604482015260640161004b565b6001600160a01b031660805261012c565b5f80546001600160a01b038381166001600160a01b0319831681178455604051919092169283917f8be0079c531659141344cd1fd0a4f28419497f9722a3daafe3b4186f6b6457e09190a35050565b5f6020828403121561010f575f80fd5b81516001600160a01b0381168114610125575f80fd5b9392505050565b6080516106ac61014a5f395f818160d5015261025f01526106ac5ff3fe608060405234801561000f575f80fd5b506004361061009b575f3560e01c80638da5cb5b116100635780638da5cb5b1461012c5780638faf77f51461013c578063c1ddcc9e1461014d578063f2fde38b14610160578063fd16c1d314610173575f80fd5b80630a2589f11461009f57806321cd3cae146100c85780635c60da1b146100d05780635f25bd351461010f578063715018a614610122575b5f80fd5b6100b26100ad366004610589565b610186565b6040516100bf91906105a9565b60405180910390f35b6100b26101f9565b6100f77f000000000000000000000000000000000000000000000000000000000000000081565b6040516001600160a01b0390911681526020016100bf565b6100f761011d3660046105f5565b610259565b61012a61039d565b005b5f546001600160a01b03166100f7565b6001546040519081526020016100bf565b6100f761015b366004610637565b6103b0565b61012a61016e366004610589565b6103e4565b6100f761018136600461065f565b610426565b6001600160a01b0381165f908152600260209081526040918290208054835181840281018401909452808452606093928301828280156101ed57602002820191905f5260205f20905b81546001600160a01b031681526001909101906020018083116101cf575b50505050509050919050565b6060600180548060200260200160405190810160405280929190818152602001828054801561024f57602002820191905f5260205f20905b81546001600160a01b03168152600190910190602001808311610231575b5050505050905090565b5f61028c7f00000000000000000000000000000000000000000000000000000000000000006001600160a01b031661044e565b604051631a87b7a760e21b815260048101879052602481018690526044810185905283151560648201529091506001600160a01b03821690636a1ede9c906084015f604051808303815f87803b1580156102e4575f80fd5b505af11580156102f6573d5f803e3d5ffd5b50506001805480820182557fb10e2d527612073b26eecdfd717e6a320cf44b4afac2b0732d9fcbe2b7fa0cf60180546001600160a01b0386166001600160a01b03199182168117909255335f8181526002602090815260408083208054978801815583529082209095018054909316841790925592519294509092507fe39aa5facc1ab0c6f9442d5cac663064983c41007e4ff54800c9be350c4d2b1091a3949350505050565b6103a561045f565b6103ae5f61048b565b565b6002602052815f5260405f2081815481106103c9575f80fd5b5f918252602090912001546001600160a01b03169150829050565b6103ec61045f565b6001600160a01b03811661041a57604051631e4fbdf760e01b81525f60048201526024015b60405180910390fd5b6104238161048b565b50565b60018181548110610435575f80fd5b5f918252602090912001546001600160a01b0316905081565b5f610459825f6104da565b92915050565b5f546001600160a01b031633146103ae5760405163118cdaa760e01b8152336004820152602401610411565b5f80546001600160a01b038381166001600160a01b0319831681178455604051919092169283917f8be0079c531659141344cd1fd0a4f28419497f9722a3daafe3b4186f6b6457e09190a35050565b5f814710156105055760405163cf47918160e01b815247600482015260248101839052604401610411565b763d602d80600a3d3981f3363d3d373d3d3d363d730000008360601b60e81c175f526e5af43d82803e903d91602b57fd5bf38360781b176020526037600983f090506001600160a01b0381166104595760405163b06ebf3d60e01b815260040160405180910390fd5b80356001600160a01b0381168114610584575f80fd5b919050565b5f60208284031215610599575f80fd5b6105a28261056e565b9392505050565b602080825282518282018190525f9190848201906040850190845b818110156105e95783516001600160a01b0316835292840192918401916001016105c4565b50909695505050505050565b5f805f8060808587031215610608575f80fd5b8435935060208501359250604085013591506060850135801515811461062c575f80fd5b939692955090935050565b5f8060408385031215610648575f80fd5b6106518361056e565b946020939093013593505050565b5f6020828403121561066f575f80fd5b503591905056fea2646970667358221220558eb7097146e860aaa3bca0b5b01a77f02f40c876e435703c3c974a7c627ef664736f6c63430008160033",
    "immutableReferences": {
        "2875": [
            {
                "length": 32,
                "start": 213
            },
            {
                "length": 32,
                "start": 607
            }
        ]
    },
    "source": "// SPDX-License-Identifier: MIT\npragma solidity ^0.8.22;\n\nimport \"@openzeppelin/contracts/proxy/Clones.sol\";\nimport \"@openzeppelin/contracts/access/Ownable.sol\";\nimport \"./ROSCA.sol\";\n\ncontract ROSCAFactory is Ownable {\n    using Clones for address;\n\n    address public immutable implementation;\n    address[] public allGroups;\n    mapping(address => address[]) public groupsByCreator;\n\n    event GroupCreated(address indexed group, address indexed creator);\n\n    constructor(address _implementation) Ownable(msg.sender) {\n        require(_implementation != address(0), \"impl = 0\");\n        implementation = _implementation;\n    }\n\n    /*\n      External API\n    */\n    /**\n     * @param _amount   Contribution per round (wei)\n     * @param _interval Min seconds between payouts\n    * @param _maxMembers Maximum number of members in the group\n    */\n    function createGroup(\n        uint256 _amount,\n        uint256 _interval,\n        uint256 _maxMembers,     // instead of _members[]\n        bool    _useCollateral\n    ) external returns (address group) {\n        group = implementation.clone();\n        ROSCA(payable(group)).initialize(_amount, _interval, _maxMembers, _useCollateral);\n\n        // 3. Book-keeping\n        allGroups.push(group);\n        groupsByCreator[msg.sender].push(group);\n\n        emit GroupCreated(group, msg.sender);\n    }\n\n    /* View helpers */\n    function allGroupsLength() external view returns (uint256) {\n        return allGroups.length;\n    }\n\n    function groupsOf(address creator) external view returns (address[] memory) {\n        return groupsByCreator[creator];\n    }\n    function getAllGroups() external view returns (address[] memory) {\n    return allGroups;\n}\n\n    \n}\n",
    "sourcePath": "/mnt/c/rosca_dapp/contracts/ROSCAFactory.sol",
    "compiler": {
        "name": "solc",
        "version": "0.8.22+commit.4fc1097e.Emscripten.clang"
    },
    "schemaVersion": "3.4.16",
    "updatedAt": "2025-07-06T12:53:53.388Z",
    "networkType": "ethereum",
    "devdoc": {
        "errors": {
            "FailedDeployment()": [
                {
                    "details": "The deployment failed."
                }
            ],
            "InsufficientBalance(uint256,uint256)": [
                {
                    "details": "The ETH balance of the account is not enough to perform the operation."
                }
            ],
            "OwnableInvalidOwner(address)": [
                {
                    "details": "The owner is not a valid owner account. (eg. `address(0)`)"
                }
            ],
            "OwnableUnauthorizedAccount(address)": [
                {
                    "details": "The caller account is not authorized to perform an operation."
                }
            ]
        },
        "kind": "dev",
        "methods": {
            "createGroup(uint256,uint256,uint256,bool)": {
                "params": {
                    "_amount": "Contribution per round (wei)",
                    "_interval": "Min seconds between payouts",
                    "_maxMembers": "Maximum number of members in the group"
                }
            },
            "owner()": {
                "details": "Returns the address of the current owner."
            },
            "renounceOwnership()": {
                "details": "Leaves the contract without owner. It will not be possible to call `onlyOwner` functions. Can only be called by the current owner. NOTE: Renouncing ownership will leave the contract without an owner, thereby disabling any functionality that is only available to the owner."
            },
            "transferOwnership(address)": {
                "details": "Transfers ownership of the contract to a new account (`newOwner`). Can only be called by the current owner."
            }
        },
        "version": 1
    },
    "userdoc": {
        "kind": "user",
        "methods": {},
        "version": 1
    }
}