{
  "contractName": "ROSCA",
  "abi": [
    {
      "inputs": [],
      "stateMutability": "nonpayable",
      "type": "constructor"
    },
    {
      "inputs": [
        {
          "internalType": "address",
          "name": "target",
          "type": "address"
        }
      ],
      "name": "AddressEmptyCode",
      "type": "error"
    },
    {
      "inputs": [
        {
          "internalType": "address",
          "name": "implementation",
          "type": "address"
        }
      ],
      "name": "ERC1967InvalidImplementation",
      "type": "error"
    },
    {
      "inputs": [],
      "name": "ERC1967NonPayable",
      "type": "error"
    },
    {
      "inputs": [],
      "name": "FailedCall",
      "type": "error"
    },
    {
      "inputs": [],
      "name": "InvalidInitialization",
      "type": "error"
    },
    {
      "inputs": [],
      "name": "NotInitializing",
      "type": "error"
    },
    {
      "inputs": [
        {
          "internalType": "address",
          "name": "owner",
          "type": "address"
        }
      ],
      "name": "OwnableInvalidOwner",
      "type": "error"
    },
    {
      "inputs": [
        {
          "internalType": "address",
          "name": "account",
          "type": "address"
        }
      ],
      "name": "OwnableUnauthorizedAccount",
      "type": "error"
    },
    {
      "inputs": [],
      "name": "UUPSUnauthorizedCallContext",
      "type": "error"
    },
    {
      "inputs": [
        {
          "internalType": "bytes32",
          "name": "slot",
          "type": "bytes32"
        }
      ],
      "name": "UUPSUnsupportedProxiableUUID",
      "type": "error"
    },
    {
      "anonymous": false,
      "inputs": [
        {
          "indexed": true,
          "internalType": "address",
          "name": "member",
          "type": "address"
        },
        {
          "indexed": false,
          "internalType": "uint256",
          "name": "amount",
          "type": "uint256"
        }
      ],
      "name": "CollateralRefunded",
      "type": "event"
    },
    {
      "anonymous": false,
      "inputs": [
        {
          "indexed": true,
          "internalType": "address",
          "name": "debtor",
          "type": "address"
        },
        {
          "indexed": true,
          "internalType": "uint256",
          "name": "cycle",
          "type": "uint256"
        },
        {
          "indexed": false,
          "internalType": "uint256",
          "name": "amount",
          "type": "uint256"
        }
      ],
      "name": "CollateralUsed",
      "type": "event"
    },
    {
      "anonymous": false,
      "inputs": [
        {
          "indexed": true,
          "internalType": "address",
          "name": "participant",
          "type": "address"
        },
        {
          "indexed": true,
          "internalType": "uint256",
          "name": "cycle",
          "type": "uint256"
        },
        {
          "indexed": false,
          "internalType": "uint256",
          "name": "amount",
          "type": "uint256"
        }
      ],
      "name": "Contributed",
      "type": "event"
    },
    {
      "anonymous": false,
      "inputs": [
        {
          "indexed": false,
          "internalType": "uint256",
          "name": "newCycle",
          "type": "uint256"
        }
      ],
      "name": "CycleAdvanced",
      "type": "event"
    },
    {
      "anonymous": false,
      "inputs": [
        {
          "indexed": false,
          "internalType": "uint256",
          "name": "startTime",
          "type": "uint256"
        }
      ],
      "name": "GroupStarted",
      "type": "event"
    },
    {
      "anonymous": false,
      "inputs": [
        {
          "indexed": false,
          "internalType": "uint64",
          "name": "version",
          "type": "uint64"
        }
      ],
      "name": "Initialized",
      "type": "event"
    },
    {
      "anonymous": false,
      "inputs": [
        {
          "indexed": true,
          "internalType": "address",
          "name": "previousOwner",
          "type": "address"
        },
        {
          "indexed": true,
          "internalType": "address",
          "name": "newOwner",
          "type": "address"
        }
      ],
      "name": "OwnershipTransferred",
      "type": "event"
    },
    {
      "anonymous": false,
      "inputs": [
        {
          "indexed": true,
          "internalType": "address",
          "name": "newParticipant",
          "type": "address"
        }
      ],
      "name": "ParticipantAdded",
      "type": "event"
    },
    {
      "anonymous": false,
      "inputs": [
        {
          "indexed": true,
          "internalType": "address",
          "name": "who",
          "type": "address"
        },
        {
          "indexed": true,
          "internalType": "uint256",
          "name": "index",
          "type": "uint256"
        }
      ],
      "name": "ParticipantJoined",
      "type": "event"
    },
    {
      "anonymous": false,
      "inputs": [
        {
          "indexed": true,
          "internalType": "address",
          "name": "recipient",
          "type": "address"
        },
        {
          "indexed": true,
          "internalType": "uint256",
          "name": "cycle",
          "type": "uint256"
        },
        {
          "indexed": false,
          "internalType": "uint256",
          "name": "amount",
          "type": "uint256"
        }
      ],
      "name": "Payout",
      "type": "event"
    },
    {
      "anonymous": false,
      "inputs": [
        {
          "indexed": true,
          "internalType": "address",
          "name": "implementation",
          "type": "address"
        }
      ],
      "name": "Upgraded",
      "type": "event"
    },
    {
      "stateMutability": "payable",
      "type": "fallback",
      "payable": true
    },
    {
      "inputs": [],
      "name": "UPGRADE_INTERFACE_VERSION",
      "outputs": [
        {
          "internalType": "string",
          "name": "",
          "type": "string"
        }
      ],
      "stateMutability": "view",
      "type": "function",
      "constant": true
    },
    {
      "inputs": [],
      "name": "collateralEnabled",
      "outputs": [
        {
          "internalType": "bool",
          "name": "",
          "type": "bool"
        }
      ],
      "stateMutability": "view",
      "type": "function",
      "constant": true
    },
    {
      "inputs": [],
      "name": "collateralRequirement",
      "outputs": [
        {
          "internalType": "uint256",
          "name": "",
          "type": "uint256"
        }
      ],
      "stateMutability": "view",
      "type": "function",
      "constant": true
    },
    {
      "inputs": [],
      "name": "contributionAmount",
      "outputs": [
        {
          "internalType": "uint256",
          "name": "",
          "type": "uint256"
        }
      ],
      "stateMutability": "view",
      "type": "function",
      "constant": true
    },
    {
      "inputs": [],
      "name": "currentCycle",
      "outputs": [
        {
          "internalType": "uint256",
          "name": "",
          "type": "uint256"
        }
      ],
      "stateMutability": "view",
      "type": "function",
      "constant": true
    },
    {
      "inputs": [
        {
          "internalType": "uint256",
          "name": "",
          "type": "uint256"
        },
        {
          "internalType": "address",
          "name": "",
          "type": "address"
        }
      ],
      "name": "hasContributed",
      "outputs": [
        {
          "internalType": "bool",
          "name": "",
          "type": "bool"
        }
      ],
      "stateMutability": "view",
      "type": "function",
      "constant": true
    },
    {
      "inputs": [],
      "name": "interval",
      "outputs": [
        {
          "internalType": "uint256",
          "name": "",
          "type": "uint256"
        }
      ],
      "stateMutability": "view",
      "type": "function",
      "constant": true
    },
    {
      "inputs": [],
      "name": "maxParticipants",
      "outputs": [
        {
          "internalType": "uint256",
          "name": "",
          "type": "uint256"
        }
      ],
      "stateMutability": "view",
      "type": "function",
      "constant": true
    },
    {
      "inputs": [
        {
          "internalType": "address",
          "name": "",
          "type": "address"
        }
      ],
      "name": "memberInfo",
      "outputs": [
        {
          "internalType": "uint256",
          "name": "collateralRemaining",
          "type": "uint256"
        },
        {
          "internalType": "bool",
          "name": "expelled",
          "type": "bool"
        }
      ],
      "stateMutability": "view",
      "type": "function",
      "constant": true
    },
    {
      "inputs": [],
      "name": "nextPayoutTime",
      "outputs": [
        {
          "internalType": "uint256",
          "name": "",
          "type": "uint256"
        }
      ],
      "stateMutability": "view",
      "type": "function",
      "constant": true
    },
    {
      "inputs": [],
      "name": "owner",
      "outputs": [
        {
          "internalType": "address",
          "name": "",
          "type": "address"
        }
      ],
      "stateMutability": "view",
      "type": "function",
      "constant": true
    },
    {
      "inputs": [
        {
          "internalType": "uint256",
          "name": "",
          "type": "uint256"
        }
      ],
      "name": "participants",
      "outputs": [
        {
          "internalType": "address",
          "name": "",
          "type": "address"
        }
      ],
      "stateMutability": "view",
      "type": "function",
      "constant": true
    },
    {
      "inputs": [],
      "name": "payoutSize",
      "outputs": [
        {
          "internalType": "uint256",
          "name": "",
          "type": "uint256"
        }
      ],
      "stateMutability": "view",
      "type": "function",
      "constant": true
    },
    {
      "inputs": [],
      "name": "proxiableUUID",
      "outputs": [
        {
          "internalType": "bytes32",
          "name": "",
          "type": "bytes32"
        }
      ],
      "stateMutability": "view",
      "type": "function",
      "constant": true
    },
    {
      "inputs": [],
      "name": "renounceOwnership",
      "outputs": [],
      "stateMutability": "nonpayable",
      "type": "function"
    },
    {
      "inputs": [],
      "name": "started",
      "outputs": [
        {
          "internalType": "bool",
          "name": "",
          "type": "bool"
        }
      ],
      "stateMutability": "view",
      "type": "function",
      "constant": true
    },
    {
      "inputs": [
        {
          "internalType": "address",
          "name": "newOwner",
          "type": "address"
        }
      ],
      "name": "transferOwnership",
      "outputs": [],
      "stateMutability": "nonpayable",
      "type": "function"
    },
    {
      "inputs": [
        {
          "internalType": "address",
          "name": "newImplementation",
          "type": "address"
        },
        {
          "internalType": "bytes",
          "name": "data",
          "type": "bytes"
        }
      ],
      "name": "upgradeToAndCall",
      "outputs": [],
      "stateMutability": "payable",
      "type": "function",
      "payable": true
    },
    {
      "stateMutability": "payable",
      "type": "receive",
      "payable": true
    },
    {
      "inputs": [
        {
          "internalType": "uint256",
          "name": "_contribution",
          "type": "uint256"
        },
        {
          "internalType": "uint256",
          "name": "_interval",
          "type": "uint256"
        },
        {
          "internalType": "uint256",
          "name": "_maxParticipants",
          "type": "uint256"
        },
        {
          "internalType": "bool",
          "name": "_useCollateral",
          "type": "bool"
        }
      ],
      "name": "initialize",
      "outputs": [],
      "stateMutability": "nonpayable",
      "type": "function"
    },
    {
      "inputs": [],
      "name": "join",
      "outputs": [],
      "stateMutability": "payable",
      "type": "function",
      "payable": true
    },
    {
      "inputs": [],
      "name": "contribute",
      "outputs": [],
      "stateMutability": "payable",
      "type": "function",
      "payable": true
    },
    {
      "inputs": [],
      "name": "triggerPayout",
      "outputs": [],
      "stateMutability": "nonpayable",
      "type": "function"
    },
    {
      "inputs": [],
      "name": "withdrawCollateral",
      "outputs": [],
      "stateMutability": "nonpayable",
      "type": "function"
    },
    {
      "inputs": [
        {
          "internalType": "address",
          "name": "a",
          "type": "address"
        }
      ],
      "name": "isParticipant",
      "outputs": [
        {
          "internalType": "bool",
          "name": "",
          "type": "bool"
        }
      ],
      "stateMutability": "view",
      "type": "function",
      "constant": true
    },
    {
      "inputs": [],
      "name": "allContributed",
      "outputs": [
        {
          "internalType": "bool",
          "name": "",
          "type": "bool"
        }
      ],
      "stateMutability": "view",
      "type": "function",
      "constant": true
    },
    {
      "inputs": [
        {
          "internalType": "address",
          "name": "newP",
          "type": "address"
        }
      ],
      "name": "addParticipant",
      "outputs": [],
      "stateMutability": "nonpayable",
      "type": "function"
    },
    {
      "inputs": [
        {
          "internalType": "address",
          "name": "to",
          "type": "address"
        }
      ],
      "name": "emergencyWithdraw",
      "outputs": [],
      "stateMutability": "nonpayable",
      "type": "function"
    }
  ],
  "bytecode": "0x60a060405230608052348015610013575f80fd5b5061001c610021565b6100d3565b7ff0c57e16840df040f15088dc2f81fe391c3923bec73e23a9662efc9c229c6a00805468010000000000000000900460ff16156100715760405163f92ee8a960e01b815260040160405180910390fd5b80546001600160401b03908116146100d05780546001600160401b0319166001600160401b0390811782556040519081527fc7f505b2f371ae2175ee4913f4499e1f2633a7b5936321eed1cdaeb6115181d29060200160405180910390a15b50565b608051611c926100f95f395f81816114190152818161144201526115860152611c925ff3fe60806040526004361061019f575f3560e01c8063715018a6116100eb578063b5b96ae011610089578063d7bb99ba11610063578063d7bb99ba146104f6578063dfafe10f146104fe578063eaf232d91461051d578063f2fde38b1461053b576101e4565b8063b5b96ae0146104a0578063b688a363146104d9578063bab2f552146104e1576101e4565b8063929066f5116100c5578063929066f5146103e5578063947a36fb14610404578063a313c37114610419578063ad3cb1cc14610463576101e4565b8063715018a6146103805780638da5cb5b146103945780639267fa2c146103d0576101e4565b80634f1ef286116101585780635fa0b65f116101325780635fa0b65f146103195780636a1ede9c1461032d5780636d8ebaa81461034c5780636ff1c9bc14610361576101e4565b80634f1ef286146102de57806352d1902d146102f157806359c153be14610305576101e4565b806305a95f04146102175780631f2698ab1461022d57806324924bf71461025b57806335c1d3491461027e57806348e30c3f146102b557806349e2d033146102ca576101e4565b366101e45760405162461bcd60e51b815260206004820152601060248201526f55736520636f6e74726962757465282960801b60448201526064015b60405180910390fd5b60405162461bcd60e51b81526020600482015260086024820152671098590818d85b1b60c21b60448201526064016101db565b348015610222575f80fd5b5061022b61055a565b005b348015610238575f80fd5b506004546102469060ff1681565b60405190151581526020015b60405180910390f35b348015610266575f80fd5b5061027060035481565b604051908152602001610252565b348015610289575f80fd5b5061029d6102983660046119ab565b610969565b6040516001600160a01b039091168152602001610252565b3480156102c0575f80fd5b5061027060075481565b3480156102d5575f80fd5b50610246610991565b61022b6102ec3660046119f1565b610a07565b3480156102fc575f80fd5b50610270610a26565b348015610310575f80fd5b5061022b610a41565b348015610324575f80fd5b506102705f5481565b348015610338575f80fd5b5061022b610347366004611aad565b610bf4565b348015610357575f80fd5b5061027060095481565b34801561036c575f80fd5b5061022b61037b366004611aef565b610d8a565b34801561038b575f80fd5b5061022b610e23565b34801561039f575f80fd5b507f9016d09d72d40fdae2fd8ceac6b6234c7706214fd39c1cd1e609a0528c199300546001600160a01b031661029d565b3480156103db575f80fd5b5061027060065481565b3480156103f0575f80fd5b506102466103ff366004611aef565b610e36565b34801561040f575f80fd5b5061027060015481565b348015610424575f80fd5b5061044e610433366004611aef565b60056020525f90815260409020805460019091015460ff1682565b60408051928352901515602083015201610252565b34801561046e575f80fd5b50610493604051806040016040528060058152602001640352e302e360dc1b81525081565b6040516102529190611b2a565b3480156104ab575f80fd5b506102466104ba366004611b5c565b600a60209081525f928352604080842090915290825290205460ff1681565b61022b610e92565b3480156104ec575f80fd5b5061027060085481565b61022b61112a565b348015610509575f80fd5b5061022b610518366004611aef565b6112ce565b348015610528575f80fd5b5060045461024690610100900460ff1681565b348015610546575f80fd5b5061022b610555366004611aef565b6113d1565b60045460ff166105a15760405162461bcd60e51b81526020600482015260126024820152711493d4d0d04e881b9bdd081cdd185c9d195960721b60448201526064016101db565b6009544210156105f35760405162461bcd60e51b815260206004820152601b60248201527f524f5343413a20696e74657276616c206e6f7420656c6170736564000000000060448201526064016101db565b5f5b60025481101561079d575f6002828154811061061357610613611b86565b5f9182526020808320909101546008548352600a825260408084206001600160a01b039092168085529190925291205490915060ff1661079457600454610100900460ff1615610740576001600160a01b0381165f9081526005602052604090206001015460ff166106a7576001600160a01b0381165f9081526005602052604090206001908101805460ff191690911790555b5f80546001600160a01b03831682526005602052604082208054919283926106d0908490611bae565b9091555050600880545f908152600a602090815260408083206001600160a01b03871680855290835292819020805460ff19166001179055925492518481527f84cb0bb8b126d76ccdd17763f934bba9772d8549fc5db23bcebb0f12b58b710c910160405180910390a350610794565b610748610991565b6107945760405162461bcd60e51b815260206004820152601c60248201527f524f5343413a20636f6e747269627574696f6e73206d697373696e670000000060448201526064016101db565b506001016105f5565b506107a6610991565b6107e25760405162461bcd60e51b815260206004820152600d60248201526c7374696c6c206d697373696e6760981b60448201526064016101db565b600280546008545f92916107f591611bc1565b8154811061080557610805611b86565b5f91825260208220015460025482546001600160a01b03909216935061082a91611be0565b90505f826001600160a01b0316826040515f6040518083038185875af1925050503d805f8114610875576040519150601f19603f3d011682016040523d82523d5f602084013e61087a565b606091505b50509050806108c15760405162461bcd60e51b81526020600482015260136024820152721c1bdd081d1c985b9cd9995c8819985a5b1959606a1b60448201526064016101db565b600854836001600160a01b03167f634235fcf5af0adbca1a405ec65f6f6c08f55e1f379c2c45cd10f23cb29e0e31846040516108ff91815260200190565b60405180910390a3600160085f8282546109199190611bf7565b909155505060015461092b9042611bf7565b6009556008546040519081527f6b54bb8a639e8efe63a9d057f0aa10852353313a88b8e18bfc5d227f4eb248769060200160405180910390a1505050565b60028181548110610978575f80fd5b5f918252602090912001546001600160a01b0316905081565b5f805b6002548110156109ff57600a5f60085481526020019081526020015f205f600283815481106109c5576109c5611b86565b5f9182526020808320909101546001600160a01b0316835282019290925260400190205460ff166109f7575f91505090565b600101610994565b506001905090565b610a0f61140e565b610a18826114b2565b610a2282826114ba565b5050565b5f610a2f61157b565b505f80516020611c3d83398151915290565b600454610100900460ff16610a905760405162461bcd60e51b81526020600482015260156024820152742927a9a1a09d1031b7b63630ba32b930b61037b33360591b60448201526064016101db565b6002546008541015610ad55760405162461bcd60e51b815260206004820152600e60248201526d526f756e6473206f6e676f696e6760901b60448201526064016101db565b335f9081526005602052604090205480610b275760405162461bcd60e51b81526020600482015260136024820152724e6f7468696e6720746f20776974686472617760681b60448201526064016101db565b335f818152600560205260408082208290555190919083908381818185875af1925050503d805f8114610b75576040519150601f19603f3d011682016040523d82523d5f602084013e610b7a565b606091505b5050905080610bbb5760405162461bcd60e51b815260206004820152600d60248201526c1c99599d5b990819985a5b1959609a1b60448201526064016101db565b60405182815233907ffc88986335e3f8269829316ec738f3d408a0cc0c4d1325f6d999c9b4d17fcc8e9060200160405180910390a25050565b5f610bfd6115c4565b805490915060ff600160401b820416159067ffffffffffffffff165f81158015610c245750825b90505f8267ffffffffffffffff166001148015610c405750303b155b905081158015610c4e575080155b15610c6c5760405163f92ee8a960e01b815260040160405180910390fd5b845467ffffffffffffffff191660011785558315610c9657845460ff60401b1916600160401b1785555b60018711610cdf5760405162461bcd60e51b81526020600482015260166024820152754e656564203e3d2032207061727469636970616e747360501b60448201526064016101db565b610ce8336115ee565b610cf06115ff565b5f899055610cfe878a611be0565b60065560018890556003879055600480545f600881905560095561ffff19166101008815150217905585610d32575f610d36565b6006545b6007558315610d7f57845460ff60401b19168555604051600181527fc7f505b2f371ae2175ee4913f4499e1f2633a7b5936321eed1cdaeb6115181d29060200160405180910390a15b505050505050505050565b610d92611607565b5f816001600160a01b0316476040515f6040518083038185875af1925050503d805f8114610ddb576040519150601f19603f3d011682016040523d82523d5f602084013e610de0565b606091505b5050905080610a225760405162461bcd60e51b815260206004820152600f60248201526e15da5d1a191c985dc819985a5b1959608a1b60448201526064016101db565b610e2b611607565b610e345f611662565b565b5f805b600254811015610e8a57826001600160a01b031660028281548110610e6057610e60611b86565b5f918252602090912001546001600160a01b031603610e825750600192915050565b600101610e39565b505f92915050565b60045460ff1615610ede5760405162461bcd60e51b81526020600482015260166024820152751493d4d0d04e88185b1c9958591e481cdd185c9d195960521b60448201526064016101db565b610ee733610e36565b15610f2c5760405162461bcd60e51b81526020600482015260156024820152741493d4d0d04e88185b1c9958591e481a9bda5b9959605a1b60448201526064016101db565b60035460025410610f6d5760405162461bcd60e51b815260206004820152600b60248201526a1493d4d0d04e88199d5b1b60aa1b60448201526064016101db565b600454610100900460ff161561100e57600754341015610fcf5760405162461bcd60e51b815260206004820152601a60248201527f524f5343413a20636f6c6c61746572616c20726571756972656400000000000060448201526064016101db565b6040805180820182523481525f602080830182815233835260059091529290209051815590516001909101805460ff1916911515919091179055611053565b34156110535760405162461bcd60e51b81526020600482015260146024820152731493d4d0d04e881b9bc818dbdb1b185d195c985b60621b60448201526064016101db565b60028054600181810183555f8390527f405787fa12a823e0f2b7631cc41b3ba8828b3321ca811111fa75cd3aa3bb5ace90910180546001600160a01b0319163317905590546110a29190611bae565b60405133907f8123641a38ad3476ac345fc38496fa9edc26a110698c8c0c9fffc30f546f918c905f90a360035460025403610e34576004805460ff19166001908117909155546110f29042611bf7565b6009556040514281527f7dd6d1800352be2aa9db6bcf0eb49b55630600780f59e514b869d0442bab9d159060200160405180910390a1565b60045460ff166111715760405162461bcd60e51b81526020600482015260126024820152711493d4d0d04e881b9bdd081cdd185c9d195960721b60448201526064016101db565b61117a33610e36565b6111b55760405162461bcd60e51b815260206004820152600c60248201526b04e6f7420696e2067726f75760a41b60448201526064016101db565b5f5434146111f45760405162461bcd60e51b815260206004820152600c60248201526b15dc9bdb99c8185b5bdd5b9d60a21b60448201526064016101db565b6008545f908152600a6020908152604080832033845290915290205460ff161561124f5760405162461bcd60e51b815260206004820152600c60248201526b105b1c9958591e481c185a5960a21b60448201526064016101db565b600880545f908152600a602090815260408083203380855290835292819020805460ff19166001179055925492513481527ffa35a310d7113dddce1c275da946348e9aaebf9050b00b372033c4d84b0bd6eb910160405180910390a36112b3610991565b80156112c157506009544210155b15610e3457610e346116d2565b6112d6611607565b600854156113185760405162461bcd60e51b815260206004820152600f60248201526e416c72656164792072756e6e696e6760881b60448201526064016101db565b61132181610e36565b1561135a5760405162461bcd60e51b81526020600482015260096024820152684475706c696361746560b81b60448201526064016101db565b600280546001810182555f9182527f405787fa12a823e0f2b7631cc41b3ba8828b3321ca811111fa75cd3aa3bb5ace0180546001600160a01b0319166001600160a01b03841690811790915560405190917f31d3ac54da09405b02d1de0ee0de648de637fbdc111123be0d7fc31f2a544c0b91a250565b6113d9611607565b6001600160a01b03811661140257604051631e4fbdf760e01b81525f60048201526024016101db565b61140b81611662565b50565b306001600160a01b037f000000000000000000000000000000000000000000000000000000000000000016148061149457507f00000000000000000000000000000000000000000000000000000000000000006001600160a01b03166114885f80516020611c3d833981519152546001600160a01b031690565b6001600160a01b031614155b15610e345760405163703e46dd60e11b815260040160405180910390fd5b61140b611607565b816001600160a01b03166352d1902d6040518163ffffffff1660e01b8152600401602060405180830381865afa925050508015611514575060408051601f3d908101601f1916820190925261151191810190611c0a565b60015b61153c57604051634c9c8ce360e01b81526001600160a01b03831660048201526024016101db565b5f80516020611c3d833981519152811461156c57604051632a87526960e21b8152600481018290526024016101db565b6115768383611794565b505050565b306001600160a01b037f00000000000000000000000000000000000000000000000000000000000000001614610e345760405163703e46dd60e11b815260040160405180910390fd5b5f807ff0c57e16840df040f15088dc2f81fe391c3923bec73e23a9662efc9c229c6a005b92915050565b6115f66117e9565b61140b8161180e565b610e346117e9565b336116397f9016d09d72d40fdae2fd8ceac6b6234c7706214fd39c1cd1e609a0528c199300546001600160a01b031690565b6001600160a01b031614610e345760405163118cdaa760e01b81523360048201526024016101db565b7f9016d09d72d40fdae2fd8ceac6b6234c7706214fd39c1cd1e609a0528c19930080546001600160a01b031981166001600160a01b03848116918217845560405192169182907f8be0079c531659141344cd1fd0a4f28419497f9722a3daafe3b4186f6b6457e0905f90a3505050565b600280546008545f92916116e591611bc1565b815481106116f5576116f5611b86565b5f9182526020822001546040516001600160a01b039091169250479190839083908381818185875af1925050503d805f811461174c576040519150601f19603f3d011682016040523d82523d5f602084013e611751565b606091505b50509050806108c15760405162461bcd60e51b815260206004820152600f60248201526e151c985b9cd9995c8819985a5b1959608a1b60448201526064016101db565b61179d82611816565b6040516001600160a01b038316907fbc7cd75a20ee27fd9adebab32041f755214dbc6bffa90cc0225b39da2e5c2d3b905f90a28051156117e1576115768282611879565b610a226118eb565b6117f161190a565b610e3457604051631afcd79f60e31b815260040160405180910390fd5b6113d96117e9565b806001600160a01b03163b5f0361184b57604051634c9c8ce360e01b81526001600160a01b03821660048201526024016101db565b5f80516020611c3d83398151915280546001600160a01b0319166001600160a01b0392909216919091179055565b60605f80846001600160a01b0316846040516118959190611c21565b5f60405180830381855af49150503d805f81146118cd576040519150601f19603f3d011682016040523d82523d5f602084013e6118d2565b606091505b50915091506118e2858383611923565b95945050505050565b3415610e345760405163b398979f60e01b815260040160405180910390fd5b5f6119136115c4565b54600160401b900460ff16919050565b6060826119385761193382611982565b61197b565b815115801561194f57506001600160a01b0384163b155b1561197857604051639996b31560e01b81526001600160a01b03851660048201526024016101db565b50805b9392505050565b8051156119925780518082602001fd5b60405163d6bda27560e01b815260040160405180910390fd5b5f602082840312156119bb575f80fd5b5035919050565b80356001600160a01b03811681146119d8575f80fd5b919050565b634e487b7160e01b5f52604160045260245ffd5b5f8060408385031215611a02575f80fd5b611a0b836119c2565b9150602083013567ffffffffffffffff80821115611a27575f80fd5b818501915085601f830112611a3a575f80fd5b813581811115611a4c57611a4c6119dd565b604051601f8201601f19908116603f01168101908382118183101715611a7457611a746119dd565b81604052828152886020848701011115611a8c575f80fd5b826020860160208301375f6020848301015280955050505050509250929050565b5f805f8060808587031215611ac0575f80fd5b84359350602085013592506040850135915060608501358015158114611ae4575f80fd5b939692955090935050565b5f60208284031215611aff575f80fd5b61197b826119c2565b5f5b83811015611b22578181015183820152602001611b0a565b50505f910152565b602081525f8251806020840152611b48816040850160208701611b08565b601f01601f19169190910160400192915050565b5f8060408385031215611b6d575f80fd5b82359150611b7d602084016119c2565b90509250929050565b634e487b7160e01b5f52603260045260245ffd5b634e487b7160e01b5f52601160045260245ffd5b818103818111156115e8576115e8611b9a565b5f82611bdb57634e487b7160e01b5f52601260045260245ffd5b500690565b80820281158282048414176115e8576115e8611b9a565b808201808211156115e8576115e8611b9a565b5f60208284031215611c1a575f80fd5b5051919050565b5f8251611c32818460208701611b08565b919091019291505056fe360894a13ba1a3210667c828492db98dca3e2076cc3735a920a3ca505d382bbca26469706673582212209eae666a227970ead83938ddc5b525dc41a9668096fd5945b2fb864badb6584064736f6c63430008160033",
  "immutableReferences": {
    "482": [
      {
        "length": 32,
        "start": 5145
      },
      {
        "length": 32,
        "start": 5186
      },
      {
        "length": 32,
        "start": 5510
      }
    ]
  },
  "source": "// SPDX-License-Identifier: MIT\npragma solidity ^0.8.22;\n\nimport \"@openzeppelin/contracts-upgradeable/proxy/utils/Initializable.sol\";\nimport \"@openzeppelin/contracts-upgradeable/access/OwnableUpgradeable.sol\";\nimport \"@openzeppelin/contracts-upgradeable/proxy/utils/UUPSUpgradeable.sol\";\n\n/**\n * @title ROSCA\n * @notice Upgradeable smartcontract implementing a rotating savings and credit\n *         association.  Members contribute a fixed `contributionAmount` every\n *         cycle; once all have paid and `interval` seconds have passed, the\n *         entire pot is sent to the next recipient in `participants` order.\n */\ncontract ROSCA is Initializable, OwnableUpgradeable, UUPSUpgradeable {\n    /*//////////////////////////////////////////////////////////////\n                             IMMUTABLE PARAMS\n    //////////////////////////////////////////////////////////////*/\n    uint256 public contributionAmount;   // fixed perround payment (wei)\n    uint256 public interval;             // min seconds between payouts\n    address[] public participants;     // unchanged\n    uint256  public maxParticipants;   // NEW\n    bool     public started;           // NEW  false until roster full\n    bool public collateralEnabled;   // true  each member deposits payout-sized bond\n\n    struct MemberInfo {\n        uint256 collateralRemaining;\n        bool    expelled;\n    }\n    mapping(address => MemberInfo) public memberInfo;\n\n    uint256 public payoutSize;            // fixed pot size == contribution * maxParticipants\n    uint256 public collateralRequirement; // == payoutSize\n\n    /*//////////////////////////////////////////////////////////////\n                                STATE\n    //////////////////////////////////////////////////////////////*/\n    uint256 public currentCycle;         // increments after every payout\n    uint256 public nextPayoutTime;       // earliest ts when payout allowed\n\n    // cycle  (participant  contributed?)\n    mapping(uint256 => mapping(address => bool)) public hasContributed;\n\n    /*//////////////////////////////////////////////////////////////\n                                EVENTS\n    //////////////////////////////////////////////////////////////*/\n    event Contributed(address indexed participant, uint256 indexed cycle, uint256 amount);\n    event Payout(address indexed recipient, uint256 indexed cycle, uint256 amount);\n    event ParticipantAdded(address indexed newParticipant);\n    event CycleAdvanced(uint256 newCycle);\n    event CollateralUsed(address indexed debtor, uint256 indexed cycle, uint256 amount);\n    event CollateralRefunded(address indexed member, uint256 amount);\n\n\n    /*//////////////////////////////////////////////////////////////\n                           INITIALISATION / UPGRADE\n    //////////////////////////////////////////////////////////////*/\n    /// @custom:oz-upgrades-unsafe-allow constructor\n    constructor() { _disableInitializers(); }\n\n    /// @notice Proxy initialiser (instead of constructor)\n    function initialize(\n        uint256 _contribution,\n        uint256 _interval,\n        uint256 _maxParticipants,\n        bool _useCollateral\n    ) external initializer {\n        require(_maxParticipants > 1, \"Need >= 2 participants\");\n\n        __Ownable_init(msg.sender);\n        __UUPSUpgradeable_init();\n        contributionAmount      = _contribution;\n        payoutSize              = _contribution * _maxParticipants;\n\n        interval           = _interval;\n        maxParticipants    = _maxParticipants;\n        started            = false;               // NEW\n        currentCycle       = 0;\n        nextPayoutTime     = 0;                   // will be set on start\n        collateralEnabled     = _useCollateral;\n        collateralRequirement = _useCollateral ? payoutSize : 0;\n\n\n    }\n\n    /// @dev Authorises UUPS upgrades owner only\n    function _authorizeUpgrade(address) internal override onlyOwner {}\n\n    /*//////////////////////////////////////////////////////////////\n                               PARTICIPATION\n    //////////////////////////////////////////////////////////////*/\n\n    event ParticipantJoined(address indexed who, uint256 indexed index);\n    event GroupStarted(uint256 startTime);\n    /// @notice Join the group (if not full) can be called by anyone\n    function join() external payable {\n        require(!started,                 \"ROSCA: already started\");\n        require(!isParticipant(msg.sender), \"ROSCA: already joined\");\n        require(participants.length < maxParticipants, \"ROSCA: full\");\n\n        if (collateralEnabled) {\n            require(msg.value >= collateralRequirement, \"ROSCA: collateral required\");\n            memberInfo[msg.sender] = MemberInfo(msg.value, false);\n        } else {\n            require(msg.value == 0, \"ROSCA: no collateral\");\n        }\n\n        participants.push(msg.sender);\n        emit ParticipantJoined(msg.sender, participants.length - 1);\n\n        if (participants.length == maxParticipants) {\n            started         = true;\n            nextPayoutTime  = block.timestamp + interval;\n            emit GroupStarted(block.timestamp);\n        }\n    }\n\n    /// @notice Contribute for the current cycle (pay exactly `contributionAmount`)\n    function contribute() external payable {\n        require(started, \"ROSCA: not started\");\n        require(isParticipant(msg.sender), \"Not in group\");\n        require(msg.value == contributionAmount, \"Wrong amount\");\n        require(!hasContributed[currentCycle][msg.sender], \"Already paid\");\n\n        hasContributed[currentCycle][msg.sender] = true;\n        emit Contributed(msg.sender, currentCycle, msg.value);\n\n        if (allContributed() && block.timestamp >= nextPayoutTime) {\n            _payout();\n        }\n    }\n\n    /// @dev Internal payout + state advance; reentrancy protected by solidity 0.8 checks\n    function _payout() internal {\n        address recipient = participants[currentCycle % participants.length];\n        uint256 pot       = address(this).balance;\n        (bool ok, ) = recipient.call{value: pot}(\"\");\n        require(ok, \"Transfer failed\");\n\n        emit Payout(recipient, currentCycle, pot);\n\n        currentCycle  += 1;\n        nextPayoutTime = block.timestamp + interval;\n        emit CycleAdvanced(currentCycle);\n    }\n\n    function triggerPayout() external {\n        require(started, \"ROSCA: not started\");\n        require(block.timestamp >= nextPayoutTime, \"ROSCA: interval not elapsed\");\n\n        // 1 cover / expel any missing contributors\n        for (uint i = 0; i < participants.length; ++i) {\n            address p = participants[i];\n\n            // only act if not contributed yet for this cycle\n            if (!hasContributed[currentCycle][p]) {\n\n                if (collateralEnabled) {\n                    // if collateral is enabled, use it to cover the missing contribution\n                    if (!memberInfo[p].expelled) memberInfo[p].expelled = true;\n                    uint256 share = contributionAmount;\n                    memberInfo[p].collateralRemaining -= share;   // will revert if impossible\n                    hasContributed[currentCycle][p] = true;       // mark as paid this round\n                    emit CollateralUsed(p, currentCycle, share);\n                } else {\n                    require(allContributed(), \"ROSCA: contributions missing\");\n                }\n                \n            }\n        }\n        require(allContributed(), \"still missing\");\n\n        // 2 pay scheduled recipient (even if expelled)\n        address recipient = participants[currentCycle % participants.length];\n        uint256 pot       = contributionAmount * participants.length;\n        (bool ok, ) = recipient.call{value: pot}(\"\");\n        require(ok, \"pot transfer failed\");\n        emit Payout(recipient, currentCycle, pot);\n\n        // 3 advance state\n        currentCycle  += 1;\n        nextPayoutTime = block.timestamp + interval;\n        emit CycleAdvanced(currentCycle);\n    }\n\n    function withdrawCollateral() external {\n        require(collateralEnabled, \"ROSCA: collateral off\");\n        require(currentCycle >= participants.length, \"Rounds ongoing\");\n        uint256 amt = memberInfo[msg.sender].collateralRemaining;\n        require(amt > 0, \"Nothing to withdraw\");\n        memberInfo[msg.sender].collateralRemaining = 0;\n        (bool ok, ) = msg.sender.call{value: amt}(\"\");\n        require(ok, \"refund failed\");\n        emit CollateralRefunded(msg.sender, amt);\n    }\n\n    /*//////////////////////////////////////////////////////////////\n                                 VIEWS\n    //////////////////////////////////////////////////////////////*/\n    function isParticipant(address a) public view returns (bool) {\n        for (uint256 i = 0; i < participants.length; ++i) if (participants[i] == a) return true;\n        return false;\n    }\n\n    function allContributed() public view returns (bool) {\n        for (uint256 i = 0; i < participants.length; ++i) {\n            if (!hasContributed[currentCycle][participants[i]]) return false;\n        }\n        return true;\n    }\n\n    /*//////////////////////////////////////////////////////////////\n                                ADMIN\n    //////////////////////////////////////////////////////////////*/\n    /// @notice Add a participant *before* the first round starts\n    function addParticipant(address newP) external onlyOwner {\n        require(currentCycle == 0, \"Already running\");\n        require(!isParticipant(newP), \"Duplicate\");\n        participants.push(newP);\n        emit ParticipantAdded(newP);\n    }\n\n    /// @notice Emergency withdrawal (e.g. stuck funds)  group should multisig owner in prod\n    function emergencyWithdraw(address to) external onlyOwner {\n        (bool ok, ) = to.call{value: address(this).balance}(\"\");\n        require(ok, \"Withdraw failed\");\n    }\n\n    /*//////////////////////////////////////////////////////////////\n                             FALLBACK GUARDS\n    //////////////////////////////////////////////////////////////*/\n    receive() external payable { revert(\"Use contribute()\"); }\n    fallback() external payable { revert(\"Bad call\"); }\n}",
  "sourcePath": "/mnt/c/rosca_dapp/contracts/ROSCA.sol",
  "compiler": {
    "name": "solc",
    "version": "0.8.22+commit.4fc1097e.Emscripten.clang"
  },
  "schemaVersion": "3.4.16",
  "updatedAt": "2025-07-06T12:13:00.765Z",
  "networkType": "ethereum",
  "devdoc": {
    "errors": {
      "AddressEmptyCode(address)": [
        {
          "details": "There's no code at `target` (it is not a contract)."
        }
      ],
      "ERC1967InvalidImplementation(address)": [
        {
          "details": "The `implementation` of the proxy is invalid."
        }
      ],
      "ERC1967NonPayable()": [
        {
          "details": "An upgrade function sees `msg.value > 0` that may be lost."
        }
      ],
      "FailedCall()": [
        {
          "details": "A call to an address target failed. The target may have reverted."
        }
      ],
      "InvalidInitialization()": [
        {
          "details": "The contract is already initialized."
        }
      ],
      "NotInitializing()": [
        {
          "details": "The contract is not initializing."
        }
      ],
      "OwnableInvalidOwner(address)": [
        {
          "details": "The owner is not a valid owner account. (eg. `address(0)`)"
        }
      ],
      "OwnableUnauthorizedAccount(address)": [
        {
          "details": "The caller account is not authorized to perform an operation."
        }
      ],
      "UUPSUnauthorizedCallContext()": [
        {
          "details": "The call is from an unauthorized context."
        }
      ],
      "UUPSUnsupportedProxiableUUID(bytes32)": [
        {
          "details": "The storage `slot` is unsupported as a UUID."
        }
      ]
    },
    "events": {
      "Initialized(uint64)": {
        "details": "Triggered when the contract has been initialized or reinitialized."
      },
      "Upgraded(address)": {
        "details": "Emitted when the implementation is upgraded."
      }
    },
    "kind": "dev",
    "methods": {
      "constructor": {
        "custom:oz-upgrades-unsafe-allow": "constructor"
      },
      "owner()": {
        "details": "Returns the address of the current owner."
      },
      "proxiableUUID()": {
        "details": "Implementation of the ERC-1822 {proxiableUUID} function. This returns the storage slot used by the implementation. It is used to validate the implementation's compatibility when performing an upgrade. IMPORTANT: A proxy pointing at a proxiable contract should not be considered proxiable itself, because this risks bricking a proxy that upgrades to it, by delegating to itself until out of gas. Thus it is critical that this function revert if invoked through a proxy. This is guaranteed by the `notDelegated` modifier."
      },
      "renounceOwnership()": {
        "details": "Leaves the contract without owner. It will not be possible to call `onlyOwner` functions. Can only be called by the current owner. NOTE: Renouncing ownership will leave the contract without an owner, thereby disabling any functionality that is only available to the owner."
      },
      "transferOwnership(address)": {
        "details": "Transfers ownership of the contract to a new account (`newOwner`). Can only be called by the current owner."
      },
      "upgradeToAndCall(address,bytes)": {
        "custom:oz-upgrades-unsafe-allow-reachable": "delegatecall",
        "details": "Upgrade the implementation of the proxy to `newImplementation`, and subsequently execute the function call encoded in `data`. Calls {_authorizeUpgrade}. Emits an {Upgraded} event."
      }
    },
    "title": "ROSCA",
    "version": 1
  },
  "userdoc": {
    "kind": "user",
    "methods": {
      "addParticipant(address)": {
        "notice": "Add a participant *before* the first round starts"
      },
      "contribute()": {
        "notice": "Contribute for the current cycle (pay exactly `contributionAmount`)"
      },
      "emergencyWithdraw(address)": {
        "notice": "Emergency withdrawal (e.g. stuck funds)  group should multisig owner in prod"
      },
      "initialize(uint256,uint256,uint256,bool)": {
        "notice": "Proxy initialiser (instead of constructor)"
      },
      "join()": {
        "notice": "Join the group (if not full) can be called by anyone"
      }
    },
    "notice": "Upgradeable smartcontract implementing a rotating savings and credit         association.  Members contribute a fixed `contributionAmount` every         cycle; once all have paid and `interval` seconds have passed, the         entire pot is sent to the next recipient in `participants` order.",
    "version": 1
  }
}