{
  "contractName": "ROSCA",
  "abi": [
    {
      "inputs": [],
      "stateMutability": "nonpayable",
      "type": "constructor"
    },
    {
      "inputs": [
        {
          "internalType": "address",
          "name": "target",
          "type": "address"
        }
      ],
      "name": "AddressEmptyCode",
      "type": "error"
    },
    {
      "inputs": [
        {
          "internalType": "address",
          "name": "implementation",
          "type": "address"
        }
      ],
      "name": "ERC1967InvalidImplementation",
      "type": "error"
    },
    {
      "inputs": [],
      "name": "ERC1967NonPayable",
      "type": "error"
    },
    {
      "inputs": [],
      "name": "FailedCall",
      "type": "error"
    },
    {
      "inputs": [],
      "name": "InvalidInitialization",
      "type": "error"
    },
    {
      "inputs": [],
      "name": "NotInitializing",
      "type": "error"
    },
    {
      "inputs": [
        {
          "internalType": "address",
          "name": "owner",
          "type": "address"
        }
      ],
      "name": "OwnableInvalidOwner",
      "type": "error"
    },
    {
      "inputs": [
        {
          "internalType": "address",
          "name": "account",
          "type": "address"
        }
      ],
      "name": "OwnableUnauthorizedAccount",
      "type": "error"
    },
    {
      "inputs": [],
      "name": "UUPSUnauthorizedCallContext",
      "type": "error"
    },
    {
      "inputs": [
        {
          "internalType": "bytes32",
          "name": "slot",
          "type": "bytes32"
        }
      ],
      "name": "UUPSUnsupportedProxiableUUID",
      "type": "error"
    },
    {
      "anonymous": false,
      "inputs": [
        {
          "indexed": true,
          "internalType": "address",
          "name": "participant",
          "type": "address"
        },
        {
          "indexed": true,
          "internalType": "uint256",
          "name": "cycle",
          "type": "uint256"
        },
        {
          "indexed": false,
          "internalType": "uint256",
          "name": "amount",
          "type": "uint256"
        }
      ],
      "name": "Contributed",
      "type": "event"
    },
    {
      "anonymous": false,
      "inputs": [
        {
          "indexed": false,
          "internalType": "uint256",
          "name": "newCycle",
          "type": "uint256"
        }
      ],
      "name": "CycleAdvanced",
      "type": "event"
    },
    {
      "anonymous": false,
      "inputs": [
        {
          "indexed": false,
          "internalType": "uint64",
          "name": "version",
          "type": "uint64"
        }
      ],
      "name": "Initialized",
      "type": "event"
    },
    {
      "anonymous": false,
      "inputs": [
        {
          "indexed": true,
          "internalType": "address",
          "name": "previousOwner",
          "type": "address"
        },
        {
          "indexed": true,
          "internalType": "address",
          "name": "newOwner",
          "type": "address"
        }
      ],
      "name": "OwnershipTransferred",
      "type": "event"
    },
    {
      "anonymous": false,
      "inputs": [
        {
          "indexed": true,
          "internalType": "address",
          "name": "newParticipant",
          "type": "address"
        }
      ],
      "name": "ParticipantAdded",
      "type": "event"
    },
    {
      "anonymous": false,
      "inputs": [
        {
          "indexed": true,
          "internalType": "address",
          "name": "recipient",
          "type": "address"
        },
        {
          "indexed": true,
          "internalType": "uint256",
          "name": "cycle",
          "type": "uint256"
        },
        {
          "indexed": false,
          "internalType": "uint256",
          "name": "amount",
          "type": "uint256"
        }
      ],
      "name": "Payout",
      "type": "event"
    },
    {
      "anonymous": false,
      "inputs": [
        {
          "indexed": true,
          "internalType": "address",
          "name": "implementation",
          "type": "address"
        }
      ],
      "name": "Upgraded",
      "type": "event"
    },
    {
      "stateMutability": "payable",
      "type": "fallback",
      "payable": true
    },
    {
      "inputs": [],
      "name": "UPGRADE_INTERFACE_VERSION",
      "outputs": [
        {
          "internalType": "string",
          "name": "",
          "type": "string"
        }
      ],
      "stateMutability": "view",
      "type": "function",
      "constant": true
    },
    {
      "inputs": [],
      "name": "contributionAmount",
      "outputs": [
        {
          "internalType": "uint256",
          "name": "",
          "type": "uint256"
        }
      ],
      "stateMutability": "view",
      "type": "function",
      "constant": true
    },
    {
      "inputs": [],
      "name": "currentCycle",
      "outputs": [
        {
          "internalType": "uint256",
          "name": "",
          "type": "uint256"
        }
      ],
      "stateMutability": "view",
      "type": "function",
      "constant": true
    },
    {
      "inputs": [
        {
          "internalType": "uint256",
          "name": "",
          "type": "uint256"
        },
        {
          "internalType": "address",
          "name": "",
          "type": "address"
        }
      ],
      "name": "hasContributed",
      "outputs": [
        {
          "internalType": "bool",
          "name": "",
          "type": "bool"
        }
      ],
      "stateMutability": "view",
      "type": "function",
      "constant": true
    },
    {
      "inputs": [],
      "name": "interval",
      "outputs": [
        {
          "internalType": "uint256",
          "name": "",
          "type": "uint256"
        }
      ],
      "stateMutability": "view",
      "type": "function",
      "constant": true
    },
    {
      "inputs": [],
      "name": "nextPayoutTime",
      "outputs": [
        {
          "internalType": "uint256",
          "name": "",
          "type": "uint256"
        }
      ],
      "stateMutability": "view",
      "type": "function",
      "constant": true
    },
    {
      "inputs": [],
      "name": "owner",
      "outputs": [
        {
          "internalType": "address",
          "name": "",
          "type": "address"
        }
      ],
      "stateMutability": "view",
      "type": "function",
      "constant": true
    },
    {
      "inputs": [
        {
          "internalType": "uint256",
          "name": "",
          "type": "uint256"
        }
      ],
      "name": "participants",
      "outputs": [
        {
          "internalType": "address",
          "name": "",
          "type": "address"
        }
      ],
      "stateMutability": "view",
      "type": "function",
      "constant": true
    },
    {
      "inputs": [],
      "name": "proxiableUUID",
      "outputs": [
        {
          "internalType": "bytes32",
          "name": "",
          "type": "bytes32"
        }
      ],
      "stateMutability": "view",
      "type": "function",
      "constant": true
    },
    {
      "inputs": [],
      "name": "renounceOwnership",
      "outputs": [],
      "stateMutability": "nonpayable",
      "type": "function"
    },
    {
      "inputs": [
        {
          "internalType": "address",
          "name": "newOwner",
          "type": "address"
        }
      ],
      "name": "transferOwnership",
      "outputs": [],
      "stateMutability": "nonpayable",
      "type": "function"
    },
    {
      "inputs": [
        {
          "internalType": "address",
          "name": "newImplementation",
          "type": "address"
        },
        {
          "internalType": "bytes",
          "name": "data",
          "type": "bytes"
        }
      ],
      "name": "upgradeToAndCall",
      "outputs": [],
      "stateMutability": "payable",
      "type": "function",
      "payable": true
    },
    {
      "stateMutability": "payable",
      "type": "receive",
      "payable": true
    },
    {
      "inputs": [
        {
          "internalType": "uint256",
          "name": "_amount",
          "type": "uint256"
        },
        {
          "internalType": "uint256",
          "name": "_interval",
          "type": "uint256"
        },
        {
          "internalType": "address[]",
          "name": "_members",
          "type": "address[]"
        }
      ],
      "name": "initialize",
      "outputs": [],
      "stateMutability": "nonpayable",
      "type": "function"
    },
    {
      "inputs": [],
      "name": "contribute",
      "outputs": [],
      "stateMutability": "payable",
      "type": "function",
      "payable": true
    },
    {
      "inputs": [
        {
          "internalType": "address",
          "name": "a",
          "type": "address"
        }
      ],
      "name": "isParticipant",
      "outputs": [
        {
          "internalType": "bool",
          "name": "",
          "type": "bool"
        }
      ],
      "stateMutability": "view",
      "type": "function",
      "constant": true
    },
    {
      "inputs": [],
      "name": "allContributed",
      "outputs": [
        {
          "internalType": "bool",
          "name": "",
          "type": "bool"
        }
      ],
      "stateMutability": "view",
      "type": "function",
      "constant": true
    },
    {
      "inputs": [
        {
          "internalType": "address",
          "name": "newP",
          "type": "address"
        }
      ],
      "name": "addParticipant",
      "outputs": [],
      "stateMutability": "nonpayable",
      "type": "function"
    },
    {
      "inputs": [
        {
          "internalType": "address",
          "name": "to",
          "type": "address"
        }
      ],
      "name": "emergencyWithdraw",
      "outputs": [],
      "stateMutability": "nonpayable",
      "type": "function"
    }
  ],
  "bytecode": "0x60a060405230608052348015610013575f80fd5b5061001c610021565b6100d3565b7ff0c57e16840df040f15088dc2f81fe391c3923bec73e23a9662efc9c229c6a00805468010000000000000000900460ff16156100715760405163f92ee8a960e01b815260040160405180910390fd5b80546001600160401b03908116146100d05780546001600160401b0319166001600160401b0390811782556040519081527fc7f505b2f371ae2175ee4913f4499e1f2633a7b5936321eed1cdaeb6115181d29060200160405180910390a15b50565b6080516113716100f95f395f81816109d3015281816109fc0152610b4001526113715ff3fe60806040526004361061010c575f3560e01c80638da5cb5b11610094578063b5b96ae011610063578063b5b96ae014610343578063bab2f5521461037c578063d7bb99ba14610391578063dfafe10f14610399578063f2fde38b146103b857610151565b80638da5cb5b14610296578063929066f5146102d2578063947a36fb146102f1578063ad3cb1cc1461030657610151565b80635fa0b65f116100db5780635fa0b65f1461021b5780636d8ebaa81461022f5780636ff1c9bc14610244578063715018a6146102635780637c33404f1461027757610151565b806335c1d3491461018457806349e2d033146101c05780634f1ef286146101e457806352d1902d146101f957610151565b366101515760405162461bcd60e51b815260206004820152601060248201526f55736520636f6e74726962757465282960801b60448201526064015b60405180910390fd5b60405162461bcd60e51b81526020600482015260086024820152671098590818d85b1b60c21b6044820152606401610148565b34801561018f575f80fd5b506101a361019e366004611082565b6103d7565b6040516001600160a01b0390911681526020015b60405180910390f35b3480156101cb575f80fd5b506101d46103ff565b60405190151581526020016101b7565b6101f76101f23660046110c8565b610475565b005b348015610204575f80fd5b5061020d610494565b6040519081526020016101b7565b348015610226575f80fd5b5061020d5f5481565b34801561023a575f80fd5b5061020d60045481565b34801561024f575f80fd5b506101f761025e366004611184565b6104af565b34801561026e575f80fd5b506101f7610548565b348015610282575f80fd5b506101f761029136600461119d565b61055b565b3480156102a1575f80fd5b507f9016d09d72d40fdae2fd8ceac6b6234c7706214fd39c1cd1e609a0528c199300546001600160a01b03166101a3565b3480156102dd575f80fd5b506101d46102ec366004611184565b6106cf565b3480156102fc575f80fd5b5061020d60015481565b348015610311575f80fd5b50610336604051806040016040528060058152602001640352e302e360dc1b81525081565b6040516101b7919061123b565b34801561034e575f80fd5b506101d461035d36600461126d565b600560209081525f928352604080842090915290825290205460ff1681565b348015610387575f80fd5b5061020d60035481565b6101f761072b565b3480156103a4575f80fd5b506101f76103b3366004611184565b610888565b3480156103c3575f80fd5b506101f76103d2366004611184565b61098b565b600281815481106103e6575f80fd5b5f918252602090912001546001600160a01b0316905081565b5f805b60025481101561046d5760055f60035481526020019081526020015f205f6002838154811061043357610433611297565b5f9182526020808320909101546001600160a01b0316835282019290925260400190205460ff16610465575f91505090565b600101610402565b506001905090565b61047d6109c8565b61048682610a6c565b6104908282610a74565b5050565b5f61049d610b35565b505f8051602061131c83398151915290565b6104b7610b7e565b5f816001600160a01b0316476040515f6040518083038185875af1925050503d805f8114610500576040519150601f19603f3d011682016040523d82523d5f602084013e610505565b606091505b50509050806104905760405162461bcd60e51b815260206004820152600f60248201526e15da5d1a191c985dc819985a5b1959608a1b6044820152606401610148565b610550610b7e565b6105595f610bd9565b565b5f610564610c49565b805490915060ff600160401b820416159067ffffffffffffffff165f8115801561058b5750825b90505f8267ffffffffffffffff1660011480156105a75750303b155b9050811580156105b5575080155b156105d35760405163f92ee8a960e01b815260040160405180910390fd5b845467ffffffffffffffff1916600117855583156105fd57845460ff60401b1916600160401b1785555b600186116106465760405162461bcd60e51b81526020600482015260166024820152754e656564203e3d2032207061727469636970616e747360501b6044820152606401610148565b61064f33610c73565b610657610c84565b5f899055600188905561066c6002888861100d565b505f60035561067b88426112ab565b60045583156106c457845460ff60401b19168555604051600181527fc7f505b2f371ae2175ee4913f4499e1f2633a7b5936321eed1cdaeb6115181d29060200160405180910390a15b505050505050505050565b5f805b60025481101561072357826001600160a01b0316600282815481106106f9576106f9611297565b5f918252602090912001546001600160a01b03160361071b5750600192915050565b6001016106d2565b505f92915050565b610734336106cf565b61076f5760405162461bcd60e51b815260206004820152600c60248201526b04e6f7420696e2067726f75760a41b6044820152606401610148565b5f5434146107ae5760405162461bcd60e51b815260206004820152600c60248201526b15dc9bdb99c8185b5bdd5b9d60a21b6044820152606401610148565b6003545f90815260056020908152604080832033845290915290205460ff16156108095760405162461bcd60e51b815260206004820152600c60248201526b105b1c9958591e481c185a5960a21b6044820152606401610148565b600380545f9081526005602090815260408083203380855290835292819020805460ff19166001179055925492513481527ffa35a310d7113dddce1c275da946348e9aaebf9050b00b372033c4d84b0bd6eb910160405180910390a361086d6103ff565b801561087b57506004544210155b1561055957610559610c8c565b610890610b7e565b600354156108d25760405162461bcd60e51b815260206004820152600f60248201526e416c72656164792072756e6e696e6760881b6044820152606401610148565b6108db816106cf565b156109145760405162461bcd60e51b81526020600482015260096024820152684475706c696361746560b81b6044820152606401610148565b600280546001810182555f9182527f405787fa12a823e0f2b7631cc41b3ba8828b3321ca811111fa75cd3aa3bb5ace0180546001600160a01b0319166001600160a01b03841690811790915560405190917f31d3ac54da09405b02d1de0ee0de648de637fbdc111123be0d7fc31f2a544c0b91a250565b610993610b7e565b6001600160a01b0381166109bc57604051631e4fbdf760e01b81525f6004820152602401610148565b6109c581610bd9565b50565b306001600160a01b037f0000000000000000000000000000000000000000000000000000000000000000161480610a4e57507f00000000000000000000000000000000000000000000000000000000000000006001600160a01b0316610a425f8051602061131c833981519152546001600160a01b031690565b6001600160a01b031614155b156105595760405163703e46dd60e11b815260040160405180910390fd5b6109c5610b7e565b816001600160a01b03166352d1902d6040518163ffffffff1660e01b8152600401602060405180830381865afa925050508015610ace575060408051601f3d908101601f19168201909252610acb918101906112ca565b60015b610af657604051634c9c8ce360e01b81526001600160a01b0383166004820152602401610148565b5f8051602061131c8339815191528114610b2657604051632a87526960e21b815260048101829052602401610148565b610b308383610df6565b505050565b306001600160a01b037f000000000000000000000000000000000000000000000000000000000000000016146105595760405163703e46dd60e11b815260040160405180910390fd5b33610bb07f9016d09d72d40fdae2fd8ceac6b6234c7706214fd39c1cd1e609a0528c199300546001600160a01b031690565b6001600160a01b0316146105595760405163118cdaa760e01b8152336004820152602401610148565b7f9016d09d72d40fdae2fd8ceac6b6234c7706214fd39c1cd1e609a0528c19930080546001600160a01b031981166001600160a01b03848116918217845560405192169182907f8be0079c531659141344cd1fd0a4f28419497f9722a3daafe3b4186f6b6457e0905f90a3505050565b5f807ff0c57e16840df040f15088dc2f81fe391c3923bec73e23a9662efc9c229c6a005b92915050565b610c7b610e4b565b6109c581610e70565b610559610e4b565b600280546003545f9291610c9f916112e1565b81548110610caf57610caf611297565b5f9182526020822001546040516001600160a01b039091169250479190839083908381818185875af1925050503d805f8114610d06576040519150601f19603f3d011682016040523d82523d5f602084013e610d0b565b606091505b5050905080610d4e5760405162461bcd60e51b815260206004820152600f60248201526e151c985b9cd9995c8819985a5b1959608a1b6044820152606401610148565b600354836001600160a01b03167f634235fcf5af0adbca1a405ec65f6f6c08f55e1f379c2c45cd10f23cb29e0e3184604051610d8c91815260200190565b60405180910390a3600160035f828254610da691906112ab565b9091555050600154610db890426112ab565b6004556003546040519081527f6b54bb8a639e8efe63a9d057f0aa10852353313a88b8e18bfc5d227f4eb248769060200160405180910390a1505050565b610dff82610e78565b6040516001600160a01b038316907fbc7cd75a20ee27fd9adebab32041f755214dbc6bffa90cc0225b39da2e5c2d3b905f90a2805115610e4357610b308282610edb565b610490610f4d565b610e53610f6c565b61055957604051631afcd79f60e31b815260040160405180910390fd5b610993610e4b565b806001600160a01b03163b5f03610ead57604051634c9c8ce360e01b81526001600160a01b0382166004820152602401610148565b5f8051602061131c83398151915280546001600160a01b0319166001600160a01b0392909216919091179055565b60605f80846001600160a01b031684604051610ef79190611300565b5f60405180830381855af49150503d805f8114610f2f576040519150601f19603f3d011682016040523d82523d5f602084013e610f34565b606091505b5091509150610f44858383610f85565b95945050505050565b34156105595760405163b398979f60e01b815260040160405180910390fd5b5f610f75610c49565b54600160401b900460ff16919050565b606082610f9a57610f9582610fe4565b610fdd565b8151158015610fb157506001600160a01b0384163b155b15610fda57604051639996b31560e01b81526001600160a01b0385166004820152602401610148565b50805b9392505050565b805115610ff45780518082602001fd5b60405163d6bda27560e01b815260040160405180910390fd5b828054828255905f5260205f2090810192821561105e579160200282015b8281111561105e5781546001600160a01b0319166001600160a01b0384351617825560209092019160019091019061102b565b5061106a92915061106e565b5090565b5b8082111561106a575f815560010161106f565b5f60208284031215611092575f80fd5b5035919050565b80356001600160a01b03811681146110af575f80fd5b919050565b634e487b7160e01b5f52604160045260245ffd5b5f80604083850312156110d9575f80fd5b6110e283611099565b9150602083013567ffffffffffffffff808211156110fe575f80fd5b818501915085601f830112611111575f80fd5b813581811115611123576111236110b4565b604051601f8201601f19908116603f0116810190838211818310171561114b5761114b6110b4565b81604052828152886020848701011115611163575f80fd5b826020860160208301375f6020848301015280955050505050509250929050565b5f60208284031215611194575f80fd5b610fdd82611099565b5f805f80606085870312156111b0575f80fd5b8435935060208501359250604085013567ffffffffffffffff808211156111d5575f80fd5b818701915087601f8301126111e8575f80fd5b8135818111156111f6575f80fd5b8860208260051b850101111561120a575f80fd5b95989497505060200194505050565b5f5b8381101561123357818101518382015260200161121b565b50505f910152565b602081525f8251806020840152611259816040850160208701611219565b601f01601f19169190910160400192915050565b5f806040838503121561127e575f80fd5b8235915061128e60208401611099565b90509250929050565b634e487b7160e01b5f52603260045260245ffd5b80820180821115610c6d57634e487b7160e01b5f52601160045260245ffd5b5f602082840312156112da575f80fd5b5051919050565b5f826112fb57634e487b7160e01b5f52601260045260245ffd5b500690565b5f8251611311818460208701611219565b919091019291505056fe360894a13ba1a3210667c828492db98dca3e2076cc3735a920a3ca505d382bbca2646970667358221220556c2ad9a95f0f3398ca862955a490a7990057bb2cf56789fc0c10ff7f3e557d64736f6c63430008160033",
  "immutableReferences": {
    "482": [
      {
        "length": 32,
        "start": 2515
      },
      {
        "length": 32,
        "start": 2556
      },
      {
        "length": 32,
        "start": 2880
      }
    ]
  },
  "source": "// SPDX-License-Identifier: MIT\npragma solidity ^0.8.22;\n\nimport \"@openzeppelin/contracts-upgradeable/proxy/utils/Initializable.sol\";\nimport \"@openzeppelin/contracts-upgradeable/access/OwnableUpgradeable.sol\";\nimport \"@openzeppelin/contracts-upgradeable/proxy/utils/UUPSUpgradeable.sol\";\n\n/**\n * @title ROSCA\n * @notice Upgradeable smartcontract implementing a rotating savings and credit\n *         association.  Members contribute a fixed `contributionAmount` every\n *         cycle; once all have paid and `interval` seconds have passed, the\n *         entire pot is sent to the next recipient in `participants` order.\n */\ncontract ROSCA is Initializable, OwnableUpgradeable, UUPSUpgradeable {\n    /*//////////////////////////////////////////////////////////////\n                             IMMUTABLE PARAMS\n    //////////////////////////////////////////////////////////////*/\n    uint256 public contributionAmount;   // fixed perround payment (wei)\n    uint256 public interval;             // min seconds between payouts\n    address[] public participants;       // payout order (static after start)\n\n    /*//////////////////////////////////////////////////////////////\n                                STATE\n    //////////////////////////////////////////////////////////////*/\n    uint256 public currentCycle;         // increments after every payout\n    uint256 public nextPayoutTime;       // earliest ts when payout allowed\n\n    // cycle  (participant  contributed?)\n    mapping(uint256 => mapping(address => bool)) public hasContributed;\n\n    /*//////////////////////////////////////////////////////////////\n                                EVENTS\n    //////////////////////////////////////////////////////////////*/\n    event Contributed(address indexed participant, uint256 indexed cycle, uint256 amount);\n    event Payout(address indexed recipient, uint256 indexed cycle, uint256 amount);\n    event ParticipantAdded(address indexed newParticipant);\n    event CycleAdvanced(uint256 newCycle);\n\n    /*//////////////////////////////////////////////////////////////\n                           INITIALISATION / UPGRADE\n    //////////////////////////////////////////////////////////////*/\n    /// @custom:oz-upgrades-unsafe-allow constructor\n    constructor() { _disableInitializers(); }\n\n    /// @notice Proxy initialiser (instead of constructor)\n    function initialize(\n        uint256 _amount,\n        uint256 _interval,\n        address[] calldata _members\n    ) external initializer {\n        require(_members.length > 1, \"Need >= 2 participants\");\n\n        __Ownable_init(msg.sender);\n        __UUPSUpgradeable_init();\n\n        contributionAmount = _amount;\n        interval           = _interval;\n        participants       = _members;\n        currentCycle       = 0;\n        nextPayoutTime     = block.timestamp + _interval;\n    }\n\n    /// @dev Authorises UUPS upgrades owner only\n    function _authorizeUpgrade(address) internal override onlyOwner {}\n\n    /*//////////////////////////////////////////////////////////////\n                               PARTICIPATION\n    //////////////////////////////////////////////////////////////*/\n    /// @notice Contribute for the current cycle (pay exactly `contributionAmount`)\n    function contribute() external payable {\n        require(isParticipant(msg.sender), \"Not in group\");\n        require(msg.value == contributionAmount, \"Wrong amount\");\n        require(!hasContributed[currentCycle][msg.sender], \"Already paid\");\n\n        hasContributed[currentCycle][msg.sender] = true;\n        emit Contributed(msg.sender, currentCycle, msg.value);\n\n        if (allContributed() && block.timestamp >= nextPayoutTime) {\n            _payout();\n        }\n    }\n\n    /// @dev Internal payout + state advance; reentrancy protected by solidity 0.8 checks\n    function _payout() internal {\n        address recipient = participants[currentCycle % participants.length];\n        uint256 pot       = address(this).balance;\n        (bool ok, ) = recipient.call{value: pot}(\"\");\n        require(ok, \"Transfer failed\");\n\n        emit Payout(recipient, currentCycle, pot);\n\n        currentCycle  += 1;\n        nextPayoutTime = block.timestamp + interval;\n        emit CycleAdvanced(currentCycle);\n    }\n\n    /*//////////////////////////////////////////////////////////////\n                                 VIEWS\n    //////////////////////////////////////////////////////////////*/\n    function isParticipant(address a) public view returns (bool) {\n        for (uint256 i = 0; i < participants.length; ++i) if (participants[i] == a) return true;\n        return false;\n    }\n\n    function allContributed() public view returns (bool) {\n        for (uint256 i = 0; i < participants.length; ++i) {\n            if (!hasContributed[currentCycle][participants[i]]) return false;\n        }\n        return true;\n    }\n\n    /*//////////////////////////////////////////////////////////////\n                                ADMIN\n    //////////////////////////////////////////////////////////////*/\n    /// @notice Add a participant *before* the first round starts\n    function addParticipant(address newP) external onlyOwner {\n        require(currentCycle == 0, \"Already running\");\n        require(!isParticipant(newP), \"Duplicate\");\n        participants.push(newP);\n        emit ParticipantAdded(newP);\n    }\n\n    /// @notice Emergency withdrawal (e.g. stuck funds)  group should multisig owner in prod\n    function emergencyWithdraw(address to) external onlyOwner {\n        (bool ok, ) = to.call{value: address(this).balance}(\"\");\n        require(ok, \"Withdraw failed\");\n    }\n\n    /*//////////////////////////////////////////////////////////////\n                             FALLBACK GUARDS\n    //////////////////////////////////////////////////////////////*/\n    receive() external payable { revert(\"Use contribute()\"); }\n    fallback() external payable { revert(\"Bad call\"); }\n}",
  "sourcePath": "/Users/I747530/Desktop/rosca_dapp/contracts/ROSCA.sol",
  "compiler": {
    "name": "solc",
    "version": "0.8.22+commit.4fc1097e.Emscripten.clang"
  },
  "schemaVersion": "3.4.16",
  "updatedAt": "2025-06-22T14:21:41.266Z",
  "networkType": "ethereum",
  "devdoc": {
    "errors": {
      "AddressEmptyCode(address)": [
        {
          "details": "There's no code at `target` (it is not a contract)."
        }
      ],
      "ERC1967InvalidImplementation(address)": [
        {
          "details": "The `implementation` of the proxy is invalid."
        }
      ],
      "ERC1967NonPayable()": [
        {
          "details": "An upgrade function sees `msg.value > 0` that may be lost."
        }
      ],
      "FailedCall()": [
        {
          "details": "A call to an address target failed. The target may have reverted."
        }
      ],
      "InvalidInitialization()": [
        {
          "details": "The contract is already initialized."
        }
      ],
      "NotInitializing()": [
        {
          "details": "The contract is not initializing."
        }
      ],
      "OwnableInvalidOwner(address)": [
        {
          "details": "The owner is not a valid owner account. (eg. `address(0)`)"
        }
      ],
      "OwnableUnauthorizedAccount(address)": [
        {
          "details": "The caller account is not authorized to perform an operation."
        }
      ],
      "UUPSUnauthorizedCallContext()": [
        {
          "details": "The call is from an unauthorized context."
        }
      ],
      "UUPSUnsupportedProxiableUUID(bytes32)": [
        {
          "details": "The storage `slot` is unsupported as a UUID."
        }
      ]
    },
    "events": {
      "Initialized(uint64)": {
        "details": "Triggered when the contract has been initialized or reinitialized."
      },
      "Upgraded(address)": {
        "details": "Emitted when the implementation is upgraded."
      }
    },
    "kind": "dev",
    "methods": {
      "constructor": {
        "custom:oz-upgrades-unsafe-allow": "constructor"
      },
      "owner()": {
        "details": "Returns the address of the current owner."
      },
      "proxiableUUID()": {
        "details": "Implementation of the ERC-1822 {proxiableUUID} function. This returns the storage slot used by the implementation. It is used to validate the implementation's compatibility when performing an upgrade. IMPORTANT: A proxy pointing at a proxiable contract should not be considered proxiable itself, because this risks bricking a proxy that upgrades to it, by delegating to itself until out of gas. Thus it is critical that this function revert if invoked through a proxy. This is guaranteed by the `notDelegated` modifier."
      },
      "renounceOwnership()": {
        "details": "Leaves the contract without owner. It will not be possible to call `onlyOwner` functions. Can only be called by the current owner. NOTE: Renouncing ownership will leave the contract without an owner, thereby disabling any functionality that is only available to the owner."
      },
      "transferOwnership(address)": {
        "details": "Transfers ownership of the contract to a new account (`newOwner`). Can only be called by the current owner."
      },
      "upgradeToAndCall(address,bytes)": {
        "custom:oz-upgrades-unsafe-allow-reachable": "delegatecall",
        "details": "Upgrade the implementation of the proxy to `newImplementation`, and subsequently execute the function call encoded in `data`. Calls {_authorizeUpgrade}. Emits an {Upgraded} event."
      }
    },
    "title": "ROSCA",
    "version": 1
  },
  "userdoc": {
    "kind": "user",
    "methods": {
      "addParticipant(address)": {
        "notice": "Add a participant *before* the first round starts"
      },
      "contribute()": {
        "notice": "Contribute for the current cycle (pay exactly `contributionAmount`)"
      },
      "emergencyWithdraw(address)": {
        "notice": "Emergency withdrawal (e.g. stuck funds)  group should multisig owner in prod"
      },
      "initialize(uint256,uint256,address[])": {
        "notice": "Proxy initialiser (instead of constructor)"
      }
    },
    "notice": "Upgradeable smartcontract implementing a rotating savings and credit         association.  Members contribute a fixed `contributionAmount` every         cycle; once all have paid and `interval` seconds have passed, the         entire pot is sent to the next recipient in `participants` order.",
    "version": 1
  }
}