{
  "contractName": "ROSCAFactory",
  "abi": [
    {
      "inputs": [
        {
          "internalType": "address",
          "name": "_implementation",
          "type": "address"
        }
      ],
      "stateMutability": "nonpayable",
      "type": "constructor"
    },
    {
      "inputs": [],
      "name": "FailedDeployment",
      "type": "error"
    },
    {
      "inputs": [
        {
          "internalType": "uint256",
          "name": "balance",
          "type": "uint256"
        },
        {
          "internalType": "uint256",
          "name": "needed",
          "type": "uint256"
        }
      ],
      "name": "InsufficientBalance",
      "type": "error"
    },
    {
      "inputs": [
        {
          "internalType": "address",
          "name": "owner",
          "type": "address"
        }
      ],
      "name": "OwnableInvalidOwner",
      "type": "error"
    },
    {
      "inputs": [
        {
          "internalType": "address",
          "name": "account",
          "type": "address"
        }
      ],
      "name": "OwnableUnauthorizedAccount",
      "type": "error"
    },
    {
      "anonymous": false,
      "inputs": [
        {
          "indexed": true,
          "internalType": "address",
          "name": "group",
          "type": "address"
        },
        {
          "indexed": true,
          "internalType": "address",
          "name": "creator",
          "type": "address"
        }
      ],
      "name": "GroupCreated",
      "type": "event"
    },
    {
      "anonymous": false,
      "inputs": [
        {
          "indexed": true,
          "internalType": "address",
          "name": "previousOwner",
          "type": "address"
        },
        {
          "indexed": true,
          "internalType": "address",
          "name": "newOwner",
          "type": "address"
        }
      ],
      "name": "OwnershipTransferred",
      "type": "event"
    },
    {
      "inputs": [
        {
          "internalType": "uint256",
          "name": "",
          "type": "uint256"
        }
      ],
      "name": "allGroups",
      "outputs": [
        {
          "internalType": "address",
          "name": "",
          "type": "address"
        }
      ],
      "stateMutability": "view",
      "type": "function",
      "constant": true
    },
    {
      "inputs": [
        {
          "internalType": "address",
          "name": "",
          "type": "address"
        },
        {
          "internalType": "uint256",
          "name": "",
          "type": "uint256"
        }
      ],
      "name": "groupsByCreator",
      "outputs": [
        {
          "internalType": "address",
          "name": "",
          "type": "address"
        }
      ],
      "stateMutability": "view",
      "type": "function",
      "constant": true
    },
    {
      "inputs": [],
      "name": "implementation",
      "outputs": [
        {
          "internalType": "address",
          "name": "",
          "type": "address"
        }
      ],
      "stateMutability": "view",
      "type": "function",
      "constant": true
    },
    {
      "inputs": [],
      "name": "owner",
      "outputs": [
        {
          "internalType": "address",
          "name": "",
          "type": "address"
        }
      ],
      "stateMutability": "view",
      "type": "function",
      "constant": true
    },
    {
      "inputs": [],
      "name": "renounceOwnership",
      "outputs": [],
      "stateMutability": "nonpayable",
      "type": "function"
    },
    {
      "inputs": [
        {
          "internalType": "address",
          "name": "newOwner",
          "type": "address"
        }
      ],
      "name": "transferOwnership",
      "outputs": [],
      "stateMutability": "nonpayable",
      "type": "function"
    },
    {
      "inputs": [
        {
          "internalType": "uint256",
          "name": "_amount",
          "type": "uint256"
        },
        {
          "internalType": "uint256",
          "name": "_interval",
          "type": "uint256"
        },
        {
          "internalType": "address[]",
          "name": "_members",
          "type": "address[]"
        }
      ],
      "name": "createGroup",
      "outputs": [
        {
          "internalType": "address",
          "name": "group",
          "type": "address"
        }
      ],
      "stateMutability": "nonpayable",
      "type": "function"
    },
    {
      "inputs": [],
      "name": "allGroupsLength",
      "outputs": [
        {
          "internalType": "uint256",
          "name": "",
          "type": "uint256"
        }
      ],
      "stateMutability": "view",
      "type": "function",
      "constant": true
    },
    {
      "inputs": [
        {
          "internalType": "address",
          "name": "creator",
          "type": "address"
        }
      ],
      "name": "groupsOf",
      "outputs": [
        {
          "internalType": "address[]",
          "name": "",
          "type": "address[]"
        }
      ],
      "stateMutability": "view",
      "type": "function",
      "constant": true
    }
  ],
  "bytecode": "0x60a060405234801561000f575f80fd5b5060405161080d38038061080d83398101604081905261002e916100ff565b338061005457604051631e4fbdf760e01b81525f60048201526024015b60405180910390fd5b61005d816100b0565b506001600160a01b03811661009f5760405162461bcd60e51b81526020600482015260086024820152670696d706c203d20360c41b604482015260640161004b565b6001600160a01b031660805261012c565b5f80546001600160a01b038381166001600160a01b0319831681178455604051919092169283917f8be0079c531659141344cd1fd0a4f28419497f9722a3daafe3b4186f6b6457e09190a35050565b5f6020828403121561010f575f80fd5b81516001600160a01b0381168114610125575f80fd5b9392505050565b6080516106c361014a5f395f818160ed01526101ec01526106c35ff3fe608060405234801561000f575f80fd5b5060043610610090575f3560e01c80638da5cb5b116100635780638da5cb5b146101195780638faf77f514610129578063c1ddcc9e1461013a578063f2fde38b1461014d578063fd16c1d314610160575f80fd5b80630a2589f11461009457806347ffc219146100bd5780635c60da1b146100e8578063715018a61461010f575b5f80fd5b6100a76100a236600461050a565b610173565b6040516100b4919061052a565b60405180910390f35b6100d06100cb366004610576565b6101e6565b6040516001600160a01b0390911681526020016100b4565b6100d07f000000000000000000000000000000000000000000000000000000000000000081565b61011761031e565b005b5f546001600160a01b03166100d0565b6001546040519081526020016100b4565b6100d06101483660046105f2565b610331565b61011761015b36600461050a565b610365565b6100d061016e36600461061a565b6103a7565b6001600160a01b0381165f908152600260209081526040918290208054835181840281018401909452808452606093928301828280156101da57602002820191905f5260205f20905b81546001600160a01b031681526001909101906020018083116101bc575b50505050509050919050565b5f6102197f00000000000000000000000000000000000000000000000000000000000000006001600160a01b03166103cf565b604051637c33404f60e01b81529091506001600160a01b03821690637c33404f9061024e908890889088908890600401610631565b5f604051808303815f87803b158015610265575f80fd5b505af1158015610277573d5f803e3d5ffd5b50506001805480820182557fb10e2d527612073b26eecdfd717e6a320cf44b4afac2b0732d9fcbe2b7fa0cf60180546001600160a01b0386166001600160a01b03199182168117909255335f8181526002602090815260408083208054978801815583529082209095018054909316841790925592519294509092507fe39aa5facc1ab0c6f9442d5cac663064983c41007e4ff54800c9be350c4d2b1091a3949350505050565b6103266103e0565b61032f5f61040c565b565b6002602052815f5260405f20818154811061034a575f80fd5b5f918252602090912001546001600160a01b03169150829050565b61036d6103e0565b6001600160a01b03811661039b57604051631e4fbdf760e01b81525f60048201526024015b60405180910390fd5b6103a48161040c565b50565b600181815481106103b6575f80fd5b5f918252602090912001546001600160a01b0316905081565b5f6103da825f61045b565b92915050565b5f546001600160a01b0316331461032f5760405163118cdaa760e01b8152336004820152602401610392565b5f80546001600160a01b038381166001600160a01b0319831681178455604051919092169283917f8be0079c531659141344cd1fd0a4f28419497f9722a3daafe3b4186f6b6457e09190a35050565b5f814710156104865760405163cf47918160e01b815247600482015260248101839052604401610392565b763d602d80600a3d3981f3363d3d373d3d3d363d730000008360601b60e81c175f526e5af43d82803e903d91602b57fd5bf38360781b176020526037600983f090506001600160a01b0381166103da5760405163b06ebf3d60e01b815260040160405180910390fd5b80356001600160a01b0381168114610505575f80fd5b919050565b5f6020828403121561051a575f80fd5b610523826104ef565b9392505050565b602080825282518282018190525f9190848201906040850190845b8181101561056a5783516001600160a01b031683529284019291840191600101610545565b50909695505050505050565b5f805f8060608587031215610589575f80fd5b8435935060208501359250604085013567ffffffffffffffff808211156105ae575f80fd5b818701915087601f8301126105c1575f80fd5b8135818111156105cf575f80fd5b8860208260051b85010111156105e3575f80fd5b95989497505060200194505050565b5f8060408385031215610603575f80fd5b61060c836104ef565b946020939093013593505050565b5f6020828403121561062a575f80fd5b5035919050565b848152602080820185905260606040830181905282018390525f90849060808401835b86811015610680576001600160a01b0361066d856104ef565b1682529282019290820190600101610654565b509897505050505050505056fea26469706673582212204f7b8bd74157826844f9249ddeddb5e05711e47e2e0462707f4071bfc5a6fe2a64736f6c63430008160033",
  "immutableReferences": {
    "2501": [
      {
        "length": 32,
        "start": 237
      },
      {
        "length": 32,
        "start": 492
      }
    ]
  },
  "source": "// SPDX-License-Identifier: MIT\npragma solidity ^0.8.22;\n\nimport \"@openzeppelin/contracts/proxy/Clones.sol\";\nimport \"@openzeppelin/contracts/access/Ownable.sol\";\nimport \"./ROSCA.sol\";\n\ncontract ROSCAFactory is Ownable {\n    using Clones for address;\n\n    address public immutable implementation;\n    address[] public allGroups;\n    mapping(address => address[]) public groupsByCreator;\n\n    event GroupCreated(address indexed group, address indexed creator);\n\n    constructor(address _implementation) Ownable(msg.sender) {\n        require(_implementation != address(0), \"impl = 0\");\n        implementation = _implementation;\n    }\n\n    /*\n      External API\n    */\n    /**\n     * @param _amount   Contribution per round (wei)\n     * @param _interval Min seconds between payouts\n     * @param _members  Initial participant list (may be empty; people can join later)\n     */\n    function createGroup(\n        uint256 _amount,\n        uint256 _interval,\n        address[] calldata _members\n    ) external returns (address group) {\n        // 1. Clone\n        group = implementation.clone();\n\n        // 2. Initialise clones storage (delegatecall to implementation)\n        ROSCA(payable(group)).initialize(_amount, _interval, _members);\n\n        // 3. Book-keeping\n        allGroups.push(group);\n        groupsByCreator[msg.sender].push(group);\n\n        emit GroupCreated(group, msg.sender);\n    }\n\n    /* View helpers */\n    function allGroupsLength() external view returns (uint256) {\n        return allGroups.length;\n    }\n\n    function groupsOf(address creator) external view returns (address[] memory) {\n        return groupsByCreator[creator];\n    }\n}\n",
  "sourcePath": "/Users/I747530/Desktop/rosca_dapp/contracts/ROSCAFactory.sol",
  "compiler": {
    "name": "solc",
    "version": "0.8.22+commit.4fc1097e.Emscripten.clang"
  },
  "schemaVersion": "3.4.16",
  "updatedAt": "2025-07-05T13:47:59.508Z",
  "networkType": "ethereum",
  "devdoc": {
    "errors": {
      "FailedDeployment()": [
        {
          "details": "The deployment failed."
        }
      ],
      "InsufficientBalance(uint256,uint256)": [
        {
          "details": "The ETH balance of the account is not enough to perform the operation."
        }
      ],
      "OwnableInvalidOwner(address)": [
        {
          "details": "The owner is not a valid owner account. (eg. `address(0)`)"
        }
      ],
      "OwnableUnauthorizedAccount(address)": [
        {
          "details": "The caller account is not authorized to perform an operation."
        }
      ]
    },
    "kind": "dev",
    "methods": {
      "createGroup(uint256,uint256,address[])": {
        "params": {
          "_amount": "Contribution per round (wei)",
          "_interval": "Min seconds between payouts",
          "_members": "Initial participant list (may be empty; people can join later)"
        }
      },
      "owner()": {
        "details": "Returns the address of the current owner."
      },
      "renounceOwnership()": {
        "details": "Leaves the contract without owner. It will not be possible to call `onlyOwner` functions. Can only be called by the current owner. NOTE: Renouncing ownership will leave the contract without an owner, thereby disabling any functionality that is only available to the owner."
      },
      "transferOwnership(address)": {
        "details": "Transfers ownership of the contract to a new account (`newOwner`). Can only be called by the current owner."
      }
    },
    "version": 1
  },
  "userdoc": {
    "kind": "user",
    "methods": {},
    "version": 1
  }
}